:020000040800F2
:10000000A85600207102000807100008210F000800
:1000100005100008D10600089D100008000000002F
:100020000000000000000000000000000B100008AD
:10003000D306000800000000091000080D10000899
:100040008B0200088B0200088B0200088B0200085C
:100050008B0200088B0200088B0200088B0200084C
:100060008B0200088B0200088B0200088B0200083C
:100070008B0200088B0200088B0200088B0200082C
:100080008B0200088B0200088B0200088B0200081C
:100090008B0200088B0200088B0200088B0200080C
:1000A0008B0200088B0200088B0200088B020008FC
:1000B0008B0200088B0200088B0200088B020008EC
:1000C0008B0200088B0200088B0200088B020008DC
:1000D0008B0200088B0200088B0200088B020008CC
:1000E0008B0200088B0200088B0200088B020008BC
:1000F0008B0200088B0200088B0200088B020008AC
:100100008B0200088B0200088B0200088B0200089B
:100110008B0200088B0200088B0200088B0200088B
:100120008B0200088B0200088B0200088B0200087B
:100130008B0200088B0200088B0200088B0200086B
:100140008B0200088B0200088B0200088B0200085B
:100150008B0200088B0200088B0200088B0200084B
:100160008B0200088B0200088B0200088B0200083B
:100170008B0200088B0200088B02000800000000C0
:100180008B0200088B02000800F002F800F060F813
:100190000AA090E8000C82448344AAF10107DA45E2
:1001A00001D100F055F8AFF2090EBAE80F0013F0D4
:1001B000010F18BFFB1A43F0010318472412000077
:1001C0004412000010F8013B0A4413F0030408BF76
:1001D00010F8014B1D1108BF10F8015B641E05D01B
:1001E00010F8016B641E01F8016BF9D1002D15D0D8
:1001F00010F8014B03F00C030C2BA1EB04040ABF15
:1002000010F8013BA4EB8314A4EB032405F10103D4
:1002100014F8016B5B1E01F8016BF9D5914238BFF0
:1002200010F8013BD1D3704700230024002500269D
:10023000103A28BF78C1FBD8520728BF30C148BF49
:100240000B6070471FB501F0BDF81FBD10B510BDA4
:1002500000F0CFF81146FFF7F5FF00F05DFF00F06A
:10026000EDF803B4FFF7F2FF03BC00F0F5F800006F
:100270000948804709480047FEE7FEE7FEE7FEE73A
:10028000FEE7FEE7FEE7FEE7FEE7FEE70448054976
:10029000054A064B704700008D10000889010008D0
:1002A000A8500020A8560020A8520020A8520020E4
:1002B00053EA020C00F069802DE9F04B4FF0000684
:1002C000002B1FBFB3FA83F503FA05F424FA05F6F1
:1002D0005E4012BF1643B2FA82F502FA05F4C5F188
:1002E00020051EBF22FA05FC44EA0C04203556EA1C
:1002F000044C4FEA144418BF641C4FF000084FF040
:100300000009904271EB030C39D3002919BFB1FAEF
:1003100081F701FA07F6B0FA80F700FA07F6C7F19D
:1003200020071EBF20FA07FC46EA0C062037B6FB62
:10033000F4FCA7EB0507103F07F01F0BCBF12006DD
:100340000CFA0BFB2CFA06F644BFB3460026202F0E
:10035000A4BF5E464FF0000B5BEA060C08BF4FF0EF
:10036000010B19EB0B09ABFB027C48EB0608C01B29
:1003700006FB02CC0BFB03CC71EB0C01C1E70B4677
:10038000024641464846BDE8F08B13B54FF00000E9
:100390004FF00001AFF30080BDE81C4070474FF004
:1003A000000200B5134694469646203922BFA0E8C5
:1003B0000C50A0E80C50B1F12001BFF4F7AF0907D1
:1003C00028BFA0E80C5048BF0CC05DF804EB8900C2
:1003D00028BF40F8042B08BF704748BF20F8022B05
:1003E00011F0804F18BF00F8012B7047704770471D
:1003F0007047754600F02CF8AE4605006946534636
:1004000020F00700854618B020B5FFF73FFFBDE894
:1004100020404FF000064FF000074FF000084FF06B
:10042000000B21F00701AC46ACE8C009ACE8C009FC
:10043000ACE8C009ACE8C0098D46704710B5044669
:10044000AFF300802046BDE81040FFF70ABF000070
:10045000004870474450002001491820ABBEFEE719
:1004600026000200704700002DE9F0412C4C0122CB
:100470000221204600F026FA00220221204600F048
:1004800021FA284E651500222946304600F01AFA56
:10049000022000F005FE244F0024385D00F000FE2D
:1004A000641C042CF9DB2C462946012235463046D3
:1004B00000F008FA0820401EFDD100222646214601
:1004C000284600F0FFF9032000F0EAFD164F002453
:1004D0003F1D385D00F0E4FD641C042CF9DB0122B3
:1004E0003146284600F0EEF90820401EFDD14FF4B9
:1004F000806400222146284600F0E4F90822521EBA
:10050000FDD101222146284600F0DCF90822521EC6
:10051000FDD121462846BDE8F04100F0D3B90000E6
:100520000018024000100240100000202DE9FC419C
:1005300028A02A4D0068009027A04FF4007600689C
:10054000019000223146284600F0BCF9002000F05E
:10055000A7FD00246F46385D00F0A2FD641C042C4A
:10056000F9DB012234463146284600F0ABF9082277
:10057000521EFDD126462146284600F0A3F901204F
:1005800000F08EFD002401AF385D00F089FD641C91
:10059000042CF9DB01223146284600F093F90821AA
:1005A000491EFDD14FF4806400222146284600F008
:1005B00089F90822521EFDD101222146284600F069
:1005C00081F90822521EFDD12146284600F07AF911
:1005D000BDE8FC81004000000140082000100240FE
:1005E0002DE9F04104461D461746084600F0D9FDA6
:1005F0009FED311B53EC112B00F0E6FD00F0A4FD44
:100600000646284600F0CDFD9FED2D1B53EC112B27
:1006100000F0DAFD00F098FD082C14D2DFE804F0B9
:100620000406080A0C0E10120E250CE00F250AE035
:10063000102508E0112506E0122504E0132502E04C
:10064000142500E01525204C310A0022E671A17125
:10065000310C6171310E2171E070000AA070677079
:10066000380A1A4E20704FF400773946304600F0B1
:1006700029F9284600F014FD0025605D00F010FD0A
:100680006D1C082DF9DB01223946304600F01AF9BD
:100690000820401EFDD1012294022146304600F080
:1006A00011F90820401EFDD121463046BDE8F04139
:1006B000002200F007B9000095D626E80B2E114065
:1006C000012FC1166CC166403C00002000100240A2
:1006D000FEE770472DE9F84FDFF8BCA100220125A5
:1006E00003264FF00F090AF1040BAAF1040E00BF14
:1006F0000B6805FA02F42340A34270D10F7907F08A
:100700000307012F01D0022F16D187684FEA420854
:1007100006FA08FC27EA0C07D1F80CC00CFA08FC12
:100720004CEA070CC0F808C04768A7430C79C4F32B
:10073000001494403C4344600C79E443A4070AD07D
:10074000C4684FEA420C06FA0CF7BC438F6807FAFC
:100750000CF72743C7600C7904F00304022C12D174
:10076000D40800EB840CDCF820405707FF0E09FA90
:1007700007F824EA0804D1F8108008FA07F848EAD4
:100780000408CCF8208004684FEA420C06FA0CF703
:10079000BC430F7907F0030707FA0CF727430760FC
:1007A0004C6814F4403F70D03C4C276847F48047B5
:1007B0002760246822F0030704F480440094384C36
:1007C00007EB040CDCF8084897074FEA177809FA9A
:1007D00008F7BC43334FB84202D1002724E054E06D
:1007E000314FB84201D101271EE0304FB84201D14C
:1007F000022719E02E4FB84201D1032714E02D4FF4
:10080000B84201D104270FE02B4FB84201D1052790
:100810000AE02A4FB84201D1062705E0284FB84226
:1008200001D1072700E0082707FA08F72743CCF88B
:100830000878DAF800405746D1F804C09C435FEAD4
:10084000CC2C00D51C433C60DBF800405F46D1F85F
:1008500004C09C435FEA8C2C00D51C433C60DEF84E
:1008600000407746D1F804C09C435FEA8C3C00D539
:100870001C433C60084F083F3C68D1F804C09C43CF
:100880005FEACC3C00D51C433C60521C102AFFF4AC
:100890002FAFBDE8F88F0000083C0140443802400B
:1008A0000030014000000240000402400008024005
:1008B000000C0240001002400014024000180240E8
:1008C000001C02400AB1816170470904FBE7000087
:1008D00001488068704700000000002002488168DD
:1008E0000278114481607047000000200B4810B569
:1008F000016841F400710160016841F480610160A8
:10090000016841F480710160032000F061F80F205C
:1009100000F006F800F024F8002010BD003C024072
:1009200070B50D4D04464FF47A712878B1FBF0F0A4
:100930000A490968B1FBF0F000F0DEFA48B9102C62
:1009400007D200222146501E00F022F800206C60E1
:1009500070BD012070BD0000000000200C000020D0
:100960000A4808B5016841F480410160006800F45C
:10097000804000900548001F016841F080510160EF
:10098000006800F08050009008BD0000443802402C
:10099000F0B40E4B1B680C46C3F30223C3F10705EA
:1009A000042D00D90425191D072901D2002300E0D8
:1009B000DB1E012606FA05F1491E214099409E40A2
:1009C000761E16403143F0BC00F096BB0CED00E003
:1009D000064900F0070208684FF6FF03184040EA96
:1009E0000220034A10430860704700000CED00E04D
:1009F0000000FA052DE9F0470E46050065D0DFF846
:100A00001481D8F80000F7B200F00700B04207D216
:100A100088F80070D8F8000000F00700B04254D108
:100A200028683D4C810712D5400703D5206840F463
:100A3000E05020602878000703D5206840F460402B
:100A400020602068A96820F0F00008432060287822
:100A5000C0072DD0304968680839012812D0022813
:100A600013D0032811D00968890700292DDA2168DD
:100A700021F0030101432160FFF72AFF814641F283
:100A8000883A0EE009688903EFE709688901ECE715
:100A9000FFF71EFFA0EB0901514502D90320BDE875
:100AA000F0872068696800F00C00B0EB810FEFD18F
:100AB000D8F80010404601F00701B14207D907708D
:100AC000006800F00700B04201D00120E7E7287875
:100AD000400705D52068E96820F4E050084320600D
:100AE0002878000706D52068296920F4604040EA8C
:100AF000C100206000F018F82168084AC1F3031112
:100B0000515CC8400649086006480068FFF708FFC6
:100B10000020C4E7003C024008380240CE13000821
:100B20000C00002004000020154810B5006810F0EB
:100B30000C02144813D01449042A0FD0082A0ED1ED
:100B40000F4C241F2268236802F03F025B0207D586
:100B50002068C0F38810A0FB010106E0084610BD24
:100B60002168C1F38811A1FB00010023FFF7A0FB5E
:100B70002168C1F30141491C4900B0FBF1F010BDEF
:100B8000083802400024F40040787D012DE9F84F38
:100B900004006ED02078DFF84C93C007A9F104055B
:100BA0004AD009F104000168C1F38101012908D08C
:100BB0000068C0F3810002280AD1D9F80000400281
:100BC00006D52868800337D560680028E1D033E077
:100BD0006068B0F5803F10D0B0F5A02F286810D025
:100BE00020F480302860286820F480202860606825
:100BF000A8B1FFF76DFE06460DE0286840F480308E
:100C0000F4E740F480202860F7E700BFFFF760FEBC
:100C1000801B642873D828688003F7D50CE0FFF7A1
:100C200057FE064605E000BFFFF752FE801B642812
:100C3000F0D828688003F7D42078DFF8AC828007EA
:100C40004FF0000A3ED5A748001D016811F00C0FB7
:100C500008D00068C0F3810002280BD1D9F8000049
:100C6000400207D42868800716D5E068012800D123
:100C700012E033E1E068B8B10120C8F80000FFF7E6
:100C800027FE064605E000BFFFF722FE801B022874
:100C9000C0D828688007F7D52868216920F0F800B7
:100CA00040EAC10028600DE0C8F800A0FFF710FE80
:100CB000064604E0FFF70CFE801B02281FD82868B8
:100CC0008007F7D42078000722D5864F87486169CE
:100CD000703771B101210160FFF7FAFD064604E0AB
:100CE000FFF7F6FD801B022809D838688007F7D582
:100CF0000EE0C0F800A0FFF7EBFD064605E082E03D
:100D0000FFF7E6FD801B02287DD838688007F7D4FE
:100D10002078400768D5DFF8CCB100270BF13C0BF9
:100D2000DBF80000C0000BD4DBF8001041F080516C
:100D3000CBF80010DBF80000012700F08050009095
:100D40006B4E3068C00510D4306840F4807030605D
:100D5000FFF7BEFD009005E0FFF7BAFD0099401ACD
:100D6000022850D83068C005F6D55E4EA0686C36B3
:100D700001280FD00528306810D020F00100306025
:100D8000306820F004003060A068B8B1FFF7A0FD23
:100D900000900FE0306840F00100F4E740F00400FC
:100DA0003060F7E7FFF794FD0099411A41F288306F
:100DB000814266D830688007F4D50EE0FFF788FDE1
:100DC000009007E0FFF784FD0099411A41F2883056
:100DD000814256D830688007F4D42FB1DBF8001078
:100DE00021F08051CBF80010A069C8B33D49091D1E
:100DF0000968C1F3810102294AD00228504607D070
:100E0000C8F8600000E03CE0FFF762FD04463BE00C
:100E10004746C8F86000FFF75BFD064605E000BFE7
:100E2000FFF756FD801B02282BD828688001F7D4D5
:100E3000D4E907010843A16A2E4A490802EB01419F
:100E4000626A41EA8211084394F82C1040EA016179
:100E5000C9F8001001203866FFF73AFD044606E0A5
:100E60003EE000BFFFF734FD001B022809D82868C8
:100E70008001F7D534E000BFFFF72AFD001B0228F0
:100E800002D90320BDE8F88F28688001F4D427E058
:100E90000128F7D0D9F80000E26900F480019142FE
:100EA0001CD1226A00F03F01914217D147F6C07170
:100EB000626A0140B1EB821F10D1A26A4FF0FF338A
:100EC00000F4403103EB5202B1EB024F06D194F82B
:100ED0002C1000F07060B0EB016F01D00120D1E761
:100EE0000020CFE70438024000004742800E47420E
:100EF000007000400000FFFF10B5401EB0F1807F81
:100F000001D3012010BD4FF0E02460610F21601774
:100F100000F0F2F80020A06107202061002010BD41
:100F2000FEE700002DE9F04786B014216846FFF780
:100F300036FA30480024016841F080010160016800
:100F400001F080010591016841F0400101600168F4
:100F500001F040010591016841F010010160016854
:100F600001F010010591016841F002010160016882
:100F700001F002010591016841F001010160006882
:100F8000DFF8748000F00100059000220221404645
:100F9000FFF798FCDFF864904FF47F46002231465B
:100FA0004846FFF78FFCDFF858A04FF44067002257
:100FB00039465046FFF786FC022000900125CDE916
:100FC0000154694640460394FFF784FB0096CDE93F
:100FD0000154694648460394FFF77CFB0097CDE92E
:100FE0000154694650460394FFF774FB06B0BDE810
:100FF000F087000030380240001802400010024024
:1010000000040240FEE7FEE770477047FFF766BC4A
:1010100010B592B030216846FFF7C1F914210CA831
:10102000FFF7BDF917480024016841F080510160C5
:10103000006800F0805011901348016841F480412D
:1010400001600068069400F4804011900220009036
:1010500001200390102004906846FFF797FD08B127
:1010600072B6FEE70F20CDE90C040E940F94002118
:101070000CA81094FFF7BEFC002801D072B6FEE762
:1010800012B010BD403802400070004002480168B4
:1010900041F470010160704788ED00E0FEE7000058
:1010A0002DE9F0478025134F80466E00002231461F
:1010B0003846FFF707FC00244FF4006918EA050FD3
:1010C00001D1002200E0012249463846FFF7FAFB31
:1010D000012231463846FFF7F5FB6D080022314604
:1010E0003846FFF7EFFB641CE4B2082CE6D3BDE8FA
:1010F000F0870000001002400907090E002804DBF9
:1011000000F1E02080F80014704700F00F0000F1BB
:10111000E02080F8141D7047FFF7E8FBFFF778FF29
:10112000FFF700FFFFF7A0F9064D49F2880400BF62
:10113000FFF7FCF90023224629461846FFF750FA2C
:10114000F6E7000000E1F5054FEA1153A3F58063CF
:10115000D3F11E03A8BFD3F1200C08DB4FF00042EF
:1011600042EAC12252EA505232FA03F07047094271
:101170000BD4102BC4BF0020704703F5787CBCF162
:10118000FF3F05D04FF0FF3070474FF00000704731
:1011900070B500F0C3F800BF49922480002070476A
:1011A000F0E7B0FA80F310FA03F10AD0C3F11D039F
:1011B00003F580634FEA41504FEA035202EBD1211D
:1011C00070474FF000007047DFF848C170B51CEA67
:1011D000111E1EBF1CEA13159EEA0C0F95EA0C0F98
:1011E00000F06F8081EA030423EA4C134EEAD47EB8
:1011F00021EA4C1141F4801143F48013AE44A1FB69
:10120000024CA0FB0365AEF17F7E361955EB0C0551
:10121000A1FB034C4CF10003A0FB021C16EB0C06D7
:10122000654153F10003094218BF46F0010613F46B
:10123000007F0BD14FEA03314FEA0530340341EA16
:10124000155140EA16506FF003020AE04FEAC3213D
:101250004FEAC520F40241EA555140EA56506FF07A
:10126000020202EB2E4201EB025585EACE710AD052
:101270005FEA440C18BF24F0004450F1000041F133
:10128000000120EAD47040F2FE7C624500D270BDBD
:10129000A84214BF4FF080444FF04044002E08BFD6
:1012A0000024BEF1806FA8BFA1F1C041BDE870402D
:1012B00080F282804FF0000001F1C04101F0004156
:1012C00070479EEA0C0F0CEA131518BF95EA0C0F35
:1012D00006D04FF0000081EA030E0EF0004170BD11
:1012E00000F01CF88900013E00F007B800F009B8D2
:1012F0004FEA430C5FEA5C5C08D081EA030100F02E
:101300005BB84FEA410C5FEA5C5CF6D14FF000003D
:10131000014970470000FF070000F87F0EF1020E40
:101320002EF0030E5EF8046B364205D4012A43EB1F
:10133000030515F5001F12D8012841EB010C1CF51F
:10134000001F0CD80ED14FEAD17C15F5001F0CEB15
:101350004C0C0CF1020C08BF4CEBD37C04E04FF0BA
:10136000080C01E04FEAD37C0CEB4C0526FA05F69D
:1013700006F00706B6F1040C06D20EEB860CBDE8AB
:1013800070404CF0010C6047DFE80CF0090B0202E2
:101390004FF000414FF00000A1F5002170BD19464B
:1013A0001046012851EB010418BFD4F5001484BF86
:1013B000002001F0004170BD0808A0F500114FEABF
:1013C000310170474FF04070E1EE100A70470000A5
:1013D00000000000000001020304060708090000E5
:1013E000001400080000002044500000C401000860
:1013F0007022000844500020640600002802000803
:10140000500701000000100001100824F400050F2F
:1014100041500A327F1022400400081B08300000AF
:10142000A7C6000103FFFFFF0401FF0401FF040141
:10143000E20402FF7F0401FF0401FF0401E2040251
:10144000FF3F0401FF0401FF0401E20402FF1F0447
:1014500001FF0401FF0401E2040D5BA00F1D190C44
:101460001F00FE49101C3AFD020000FC030000FBB7
:10147000040000FA050000F9060000F8070000F774
:10148000080000F6090000F50A0000F40B0000F364
:101490000C0000F20D0000F10E0000F00F0000EF54
:1014A0008110143AEE110000ED120000EC13000060
:1014B000EB140000EA150000E9160000E817000030
:1014C000E7180000E6190000E51A0000E41B000020
:1014D000E31C0000E21D0000E11E0000E05A1C4277
:1014E000DF200000DE210000DD220000DC23000000
:1014F000DB240000DA250000D9260000D8270000F0
:10150000D7280000D6290000D52A0000D42B0000DF
:10151000D32C0000D22D0000D12E0000D02F0000CF
:10152000CFE2101C3ACE310000CD320000CC3300A7
:1015300000CB340000CA350000C9360000C83700AF
:1015400000C7380000C6390000C53A0000C43B009F
:1015500000C33C0000C23D0000C13E0000C0460583
:101560001EBF28111C3EBE410000BD420000BC430E
:101570000000BB440000BA450000B9460000B8476F
:101580000000B7480000B6490000B54A0000B44B5F
:101590000000B34C0000B24D0000B14E0000B04F4F
:1015A0000000AF72111C1BAE510000AD520000AC28
:1015B000530000AB540000AA550000A9560000A833
:1015C000577E111C9D580000A6590000A55A000026
:1015D000A45B0000A35C0000A25D0000A15E00000F
:1015E000A05F00009F6000009E6100009D620000FF
:1015F0009C6300009B6400009A65000099660000EF
:10160000986700009768000096690000956A0000DE
:10161000946B0000936C0000926D0000916E0000CE
:10162000906F00008F7000008E7100008D720000BE
:101630008C7300008B7400008A75000089760000AE
:10164000887700008778000086790000857A00009E
:10165000847B0000837C0000827D0000817E00008E
:10166000802E0A1CFB7F8000007E8100007D8200AE
:10167000007C8300007B8400007A8500007986006E
:1016800000788700007788000076890000758A005E
:1016900000748B0000738C0000728D0000718E004E
:1016A00000708F00006F9000006E9100006D92003E
:1016B000006C9300006B9400006A9500006996002E
:1016C00000689700006798000066990000659A001E
:1016D00000649B0000639C0000629D0000619E000E
:1016E00000609F00005FA000005EA100005DA200FE
:1016F000005CA300005BA400005AA5000059A600EE
:101700000058A7000057A8000056A9000055AA00DD
:101710000054AB000053AC000052AD000051AE00CD
:101720000050AF00004FB000004EB100004DB200BD
:10173000004CB300004BB400004AB5000049B600AD
:101740000048B7000047B8000046B9000045BA009D
:101750000044BB000043BC000042BD000041BE1F6E
:10176000131C1DBF00003FC000003EC100003DC271
:1017700000003CC300003BC400003AC500003936FD
:10178000131C4F38C7000037C8000036C9000035A9
:10179000CA000034CB000033CC000032CD00003151
:1017A000CE000030CF00002FD000002ED100002D41
:1017B000D200002CD300002BD400002AD500002931
:1017C000D6000028D7000027D8000026D900002521
:1017D000DAA3131C4EDB000023DC000022DD000036
:1017E00021DE000020DF00001FE000001EE10000FD
:1017F0001DE200001CE300001BE400001AE50000ED
:1018000019E6000018E7000017E8000016E90000DC
:1018100015EA000014EB000013EC000012ED0000CC
:1018200011EEFC132C3EEF00000FF000000EF10053
:10183000000DF200000CF300000BF400000AF500AC
:101840000009F6000008F7000007F8000006F9009C
:101850000005FA000004FB000003FC000002FD008C
:101860000001FEFB131DF40342FF0C2114211C2177
:1018700024212C2134213C2144214C2154215C2160
:1018800064216C2174217C2184218C2194219C2150
:10189000A421AC21B421BC21C421CC21D421DC2140
:1018A000E421EC21F421FC2504250C2514251C251C
:1018B00024252C2534253C2544254C2554255C2500
:1018C00064256C2574257C2584258C2594259C25F0
:1018D000A425AC25B425BC25C425CC25D425DC25E0
:1018E000E425EC25F425FC2904290C2914291C29BC
:1018F00024292C2934293C2944294C2954295C29A0
:1019000064296C2974297C2984298C2994299C298F
:10191000A429AC29B429BC29C429CC29D429DC297F
:10192000E429EC29F429FC2D04032D0C032D1403C8
:101930002D1C032D24032D2C032D34032D3C032DAE
:1019400044032D4C032D54032D5C032D64032D6C97
:10195000032D74032D7C032D84032D8C032D940300
:101960002D9C032DA4032DAC032DB4032DBC032DFE
:10197000C4032DCC032DD4032DDC032DE4032DEC67
:10198000032DF4032DFC032D04042D0C042D14044D
:101990002D1C042D24042D2C042D34042D3C042D49
:1019A00044042D4C042D54042D5C042D64042D6C32
:1019B000042D74042D7C042D84042D8C042D94049A
:1019C0002D9C042DA4042DAC042DB4042DBC042D99
:1019D000C4042DCC042DD4042DDC042DE4042DEC02
:1019E000042DF4042DFC042D04052D0C052D1405E7
:1019F0002D1C052D24052D2C052D34052D3C052DE4
:101A000044052D4C052D54052D5C052D64052D6CCC
:101A1000052D74052D7C052D84052D8C052D940533
:101A20002D9C052DA4052DAC052DB4052DBC052D33
:101A3000C4052DCC052DD4052DDC052DE4052DEC9C
:101A4000052DF4052DFC052D04062D0C062D140680
:101A50002D1C062D24062D2C062D34062D3C062D7E
:101A600044062D4C062D54062D5C062D64062D6C67
:101A7000062D74062D7C062D84062D8C062D9406CD
:101A80002D9C062DA4062DAC062DB4062DBC062DCE
:101A9000C4062DCC062DD4062DDC062DE4062DEC37
:101AA000062DF4062DFC062D04072D0C072D14071A
:101AB0002D1C072D24072D2C072D34072D3C072D19
:101AC00044072D4C072D54072D5C072D64072D6C02
:101AD000072D74072D7C072D84072D8C072D940767
:101AE0002D9C072DA4072DAC072DB4072DBC072D69
:101AF000C4072DCC072DD4072DDC072DE4072DECD2
:101B0000072DF4074EFF0018137FFF0400FF00FEAF
:101B100001FF7FFD02FF7FFC03FF7FFB04FF7FFAD5
:101B200005FF7FF906FF7FF807FF7FF708FF7FF6C5
:101B300009FF7FF50AFF7FF40BFF7FF30CFF7FF2B5
:101B40000DFF7FF10EFF7FF00FFF7FEF10FF7FEEA5
:101B500011FF7FED12FF7FEC13FF7FEB14FF7FEA95
:101B600015FF7FE916FF7FE817FF7FE718FF7FE685
:101B700019FF7FE51AFF7FE41BFF7FE31CFF7FE275
:101B80001DFF7FE11EFF7FE01FFF7FDF20FF7FDE65
:101B900021FF7FDD22FF7FDC23FF7FDB24FF7FDA55
:101BA00025FF7FD926FF7FD827FF7FD728FF7FD645
:101BB00029FF7FD52AFF7FD42BFF7FD32CFF7FD235
:101BC0002DFF7FD12EFF7FD02FFF7FCF30FF7FCE25
:101BD00031FF7FCD32FF7FCC33FF7FCB34FF7FCA15
:101BE00035FF7FC936FF7FC837FF7FC738FF7FC605
:101BF00039FF7FC53AFF7FC43BFF7FC33CFF7FC2F5
:101C00003DFF7FC13EFF7FC03FFF7FBF4000FF0021
:101C1000FF7FBE41FF7FBD42FF7FBC43FF7FBB44D0
:101C2000FF7FBA45FF7FB946FF7FB847FF7FB748C0
:101C3000FF7FB649FF7FB54AFF7FB44BFF7FB34CB0
:101C4000FF7FB24DFF7FB14EFF7FB04FFF7FAF50A0
:101C5000FF7FAE51FF7FAD52FF7FAC53FF7FAB5490
:101C6000FF7FAA55FF7FA956FF7FA857FF7FA75880
:101C7000FF7FA659FF7FA55AFF7FA45BFF7FA35C70
:101C8000FF7FA25DFF7FA15EFF7FA05FFF7F9F6060
:101C9000FF7F9E61FF7F9D62FF7F9C63FF7F9B6450
:101CA000FF7F9A65FF7F9966FF7F9867FF7F976840
:101CB000FF7F9669FF7F956AFF7F946BFF7F936C30
:101CC000FF7F926DFF7F916EFF7F906FFF7F8F7020
:101CD000FF7F8E71FF7F8D72FF7F8C73FF7F8B7410
:101CE000FF7F8A75FF7F8976FF7F8877FF7F877800
:101CF000FF7F8679FF7F857AFF7F847BFF7F837CF0
:101D0000FF7F827DFF7F817EFF7F807FFF7F00FFDF
:101D1000007F80FF7F7E81FF7F7D82FF7F7C83FF4E
:101D20007F7B84FF7F7A85FF7F7986FF7F7887FFBF
:101D30007F7788FF7F7689FF7F758AFF7F748BFFAF
:101D40007F738CFF7F728DFF7F718EFF7F708FFF9F
:101D50007F6F90FF7F6E91FF7F6D92FF7F6C93FF8F
:101D60007F6B94FF7F6A95FF7F6996FF7F6897FF7F
:101D70007F6798FF7F6699FF7F659AFF7F649BFF6F
:101D80007F639CFF7F629DFF7F619EFF7F609FFF5F
:101D90007F5FA0FF7F5EA1FF7F5DA2FF7F5CA3FF4F
:101DA0007F5BA4FF7F5AA5FF7F59A6FF7F58A7FF3F
:101DB0007F57A8FF7F56A9FF7F55AAFF7F54ABFF2F
:101DC0007F53ACFF7F52ADFF7F51AEFF7F50AFFF1F
:101DD0007F4FB0FF7F4EB1FF7F4DB2FF7F4CB3FF0F
:101DE0007F4BB4FF7F4AB5FF7F49B6FF7F48B7FFFF
:101DF0007F47B8FF7F46B9FF7F45BAFF7F44BBFFEF
:101E00007F43BCFF7F42BDFF7F41BEFF7F40BF1CC1
:101E1000FDFF7F3FC0FF7F3EC1FF7F3DC2FF7F3C94
:101E2000C3FF7F3BC4FF7F3AC5FF7F39C6FF7F38C2
:101E3000C7FF7F37C8FF7F36C9FF7F35CAFF7F34B2
:101E4000CBFF7F33CCFF7F32CDFF7F31CEFF7F30A2
:101E5000CFFF7F2FD0FF7F2ED1FF7F2DD2FF7F2C92
:101E6000D3FF7F2BD4FF7F2AD5FF7F29D6FF7F2882
:101E7000D7FF7F27D8FF7F26D9FF7F25DAFF7F2472
:101E8000DBFF7F23DCFF7F22DDFF7F21DEFF7F2062
:101E9000DFFF7F1FE0FF7F1EE1FF7F1DE2FF7F1C52
:101EA000E3FF7F1BE4FF7F1AE5FF7F19E6FF7F1842
:101EB000E7FF7F17E8FF7F16E9FF7F15EAFF7F1432
:101EC000EBFF7F13ECFF7F12EDFF7F11EEFF7F1022
:101ED000EFFF7F0FF0FF7F0EF1FF7F0DF2FF7F0C12
:101EE000F3FF7F0BF4FF7F0AF5FF7F09F6FF7F0802
:101EF000F7FF7F07F8FF7F06F9FF7F05FAFF7F04F2
:101F0000FBFF7F03FCFF7F02FDFF7F01FE141842F1
:101F1000FF082110211821202128213021382140BB
:101F20002148215021582160216821702178218089
:101F300021882190219821A021A821B021B821C079
:101F400021C821D021D821E021E821F021F8250065
:101F50002508251025182520252825302538254039
:101F60002548255025582560256825702578258029
:101F700025882590259825A025A825B025B825C019
:101F800025C825D025D825E025E825F025F8290005
:101F900029082910291829202928293029382940D9
:101FA00029482950295829602968297029782980C9
:101FB00029882990299829A029A829B029B829C0B9
:101FC00029C829D029D829E029E829F029F82D00A5
:101FD000032D08032D10032D18032D20032D280396
:101FE0002D30032D38032D40032D48032D50032D94
:101FF00058032D60032D68032D70032D78032D8069
:10200000032D88032D90032D98032DA0032DA803E5
:102010002DB0032DB8032DC0032DC8032DD0032DE3
:10202000D8032DE0032DE8032DF0032DF8032D0038
:10203000042D08042D10042D18042D20042D28042F
:102040002D30042D38042D40042D48042D50042D2E
:1020500058042D60042D68042D70042D78042D8003
:10206000042D88042D90042D98042DA0042DA8047F
:102070002DB0042DB8042DC0042DC8042DD0042D7E
:10208000D8042DE0042DE8042DF0042DF8042D00D3
:10209000052D08052D10052D18052D20052D2805C9
:1020A0002D30052D38052D40052D48052D50052DC9
:1020B00058052D60052D68052D70052D78052D809E
:1020C000052D88052D90052D98052DA0052DA80519
:1020D0002DB0052DB8052DC0052DC8052DD0052D19
:1020E000D8052DE0052DE8052DF0052DF8052D006E
:1020F000062D08062D10062D18062D20062D280663
:102100002D30062D38062D40062D48062D50062D63
:1021100058062D60062D68062D70062D78062D8038
:10212000062D88062D90062D98062DA0062DA806B2
:102130002DB0062DB8062DC0062DC8062DD0062DB3
:10214000D8062DE0062DE8062DF0062DF8062D0008
:10215000072D08072D10072D18072D20072D2807FC
:102160002D30072D38072D40072D48072D50072DFE
:1021700058072D60072D68072D70072D78072D80D3
:10218000072D88072D90072D98072DA0072DA8074C
:102190002DB0072DB8072DC0072DC8072DD0072D4E
:1021A000D8072DE0072DE8072DF0072DF8075EFC76
:1021B000040C01FF0401FF0401FF0401FF0401FFFF
:1021C0000401FF0401FF0401F1042D040801FF04D0
:1021D00001FF0401FF0401FF0401FF0401FF0401EA
:1021E000FF0401F1040005FF295C8F020401FF04D4
:1021F00001FF0401DF040004FFBA490C0401FF04DD
:1022000001FF0401E0040005FF4C3789010401FFD0
:102210000401FF0401DF040004FFDD24060401FFC4
:102220000401FF0401E00400055A6E128300041D3E
:10223000DA2A02FFFF0401FF0401FF0401E10403A5
:10224000FF00C00401FF0401FF0401E20402FF805B
:102250000401FF0401FF0401E20402FF400401FF46
:102260000401FF0401E1041DC93C01590400000000
:040000050800018965
:00000001FF
